{
  "_format": "hh-sol-artifact-1",
  "contractName": "CredentialRegistry",
  "sourceName": "contracts/CredentialRegistry.sol",
  "abi": [
    {
      "inputs": [],
      "stateMutability": "nonpayable",
      "type": "constructor"
    },
    {
      "anonymous": false,
      "inputs": [
        {
          "indexed": true,
          "internalType": "bytes32",
          "name": "credHash",
          "type": "bytes32"
        },
        {
          "indexed": true,
          "internalType": "address",
          "name": "issuer",
          "type": "address"
        },
        {
          "indexed": false,
          "internalType": "string",
          "name": "studentDID",
          "type": "string"
        }
      ],
      "name": "CredentialIssued",
      "type": "event"
    },
    {
      "anonymous": false,
      "inputs": [
        {
          "indexed": true,
          "internalType": "bytes32",
          "name": "credHash",
          "type": "bytes32"
        },
        {
          "indexed": true,
          "internalType": "address",
          "name": "issuer",
          "type": "address"
        }
      ],
      "name": "CredentialRevoked",
      "type": "event"
    },
    {
      "anonymous": false,
      "inputs": [
        {
          "indexed": true,
          "internalType": "address",
          "name": "issuerAddress",
          "type": "address"
        },
        {
          "indexed": false,
          "internalType": "string",
          "name": "name",
          "type": "string"
        }
      ],
      "name": "IssuerAuthorized",
      "type": "event"
    },
    {
      "anonymous": false,
      "inputs": [
        {
          "indexed": true,
          "internalType": "address",
          "name": "issuerAddress",
          "type": "address"
        }
      ],
      "name": "IssuerRevoked",
      "type": "event"
    },
    {
      "inputs": [],
      "name": "admin",
      "outputs": [
        {
          "internalType": "address",
          "name": "",
          "type": "address"
        }
      ],
      "stateMutability": "view",
      "type": "function"
    },
    {
      "inputs": [
        {
          "internalType": "address",
          "name": "_issuer",
          "type": "address"
        },
        {
          "internalType": "string",
          "name": "_name",
          "type": "string"
        }
      ],
      "name": "authorizeIssuer",
      "outputs": [],
      "stateMutability": "nonpayable",
      "type": "function"
    },
    {
      "inputs": [
        {
          "internalType": "address",
          "name": "",
          "type": "address"
        }
      ],
      "name": "authorizedIssuers",
      "outputs": [
        {
          "internalType": "string",
          "name": "name",
          "type": "string"
        },
        {
          "internalType": "bool",
          "name": "isAuthorized",
          "type": "bool"
        },
        {
          "internalType": "uint256",
          "name": "registeredAt",
          "type": "uint256"
        }
      ],
      "stateMutability": "view",
      "type": "function"
    },
    {
      "inputs": [
        {
          "internalType": "uint256",
          "name": "",
          "type": "uint256"
        }
      ],
      "name": "credentialHashes",
      "outputs": [
        {
          "internalType": "bytes32",
          "name": "",
          "type": "bytes32"
        }
      ],
      "stateMutability": "view",
      "type": "function"
    },
    {
      "inputs": [
        {
          "internalType": "bytes32",
          "name": "",
          "type": "bytes32"
        }
      ],
      "name": "credentials",
      "outputs": [
        {
          "internalType": "address",
          "name": "issuer",
          "type": "address"
        },
        {
          "internalType": "string",
          "name": "studentName",
          "type": "string"
        },
        {
          "internalType": "string",
          "name": "studentDID",
          "type": "string"
        },
        {
          "internalType": "string",
          "name": "courseName",
          "type": "string"
        },
        {
          "internalType": "bytes32",
          "name": "credHash",
          "type": "bytes32"
        },
        {
          "internalType": "string",
          "name": "ipfsCID",
          "type": "string"
        },
        {
          "internalType": "uint256",
          "name": "timestamp",
          "type": "uint256"
        },
        {
          "internalType": "bool",
          "name": "isValid",
          "type": "bool"
        },
        {
          "internalType": "bool",
          "name": "isRevoked",
          "type": "bool"
        }
      ],
      "stateMutability": "view",
      "type": "function"
    },
    {
      "inputs": [],
      "name": "getAllCredentialHashes",
      "outputs": [
        {
          "internalType": "bytes32[]",
          "name": "",
          "type": "bytes32[]"
        }
      ],
      "stateMutability": "view",
      "type": "function"
    },
    {
      "inputs": [
        {
          "internalType": "bytes32",
          "name": "_credHash",
          "type": "bytes32"
        }
      ],
      "name": "getCredential",
      "outputs": [
        {
          "components": [
            {
              "internalType": "address",
              "name": "issuer",
              "type": "address"
            },
            {
              "internalType": "string",
              "name": "studentName",
              "type": "string"
            },
            {
              "internalType": "string",
              "name": "studentDID",
              "type": "string"
            },
            {
              "internalType": "string",
              "name": "courseName",
              "type": "string"
            },
            {
              "internalType": "bytes32",
              "name": "credHash",
              "type": "bytes32"
            },
            {
              "internalType": "string",
              "name": "ipfsCID",
              "type": "string"
            },
            {
              "internalType": "uint256",
              "name": "timestamp",
              "type": "uint256"
            },
            {
              "internalType": "bool",
              "name": "isValid",
              "type": "bool"
            },
            {
              "internalType": "bool",
              "name": "isRevoked",
              "type": "bool"
            }
          ],
          "internalType": "struct CredentialRegistry.Credential",
          "name": "",
          "type": "tuple"
        }
      ],
      "stateMutability": "view",
      "type": "function"
    },
    {
      "inputs": [
        {
          "internalType": "bytes32",
          "name": "_credHash",
          "type": "bytes32"
        }
      ],
      "name": "isValidCredential",
      "outputs": [
        {
          "internalType": "bool",
          "name": "",
          "type": "bool"
        }
      ],
      "stateMutability": "view",
      "type": "function"
    },
    {
      "inputs": [
        {
          "internalType": "string",
          "name": "_studentName",
          "type": "string"
        },
        {
          "internalType": "string",
          "name": "_studentDID",
          "type": "string"
        },
        {
          "internalType": "string",
          "name": "_courseName",
          "type": "string"
        },
        {
          "internalType": "string",
          "name": "_ipfsCID",
          "type": "string"
        },
        {
          "internalType": "bytes32",
          "name": "_credHash",
          "type": "bytes32"
        }
      ],
      "name": "issueCredential",
      "outputs": [],
      "stateMutability": "nonpayable",
      "type": "function"
    },
    {
      "inputs": [
        {
          "internalType": "uint256",
          "name": "",
          "type": "uint256"
        }
      ],
      "name": "issuerAddresses",
      "outputs": [
        {
          "internalType": "address",
          "name": "",
          "type": "address"
        }
      ],
      "stateMutability": "view",
      "type": "function"
    },
    {
      "inputs": [
        {
          "internalType": "bytes32",
          "name": "_credHash",
          "type": "bytes32"
        }
      ],
      "name": "revokeCredential",
      "outputs": [],
      "stateMutability": "nonpayable",
      "type": "function"
    },
    {
      "inputs": [
        {
          "internalType": "address",
          "name": "_issuer",
          "type": "address"
        }
      ],
      "name": "revokeIssuer",
      "outputs": [],
      "stateMutability": "nonpayable",
      "type": "function"
    }
  ],
  "bytecode": "0x608060405234801561001057600080fd5b50336000806101000a81548173ffffffffffffffffffffffffffffffffffffffff021916908373ffffffffffffffffffffffffffffffffffffffff16021790555061207b806100606000396000f3fe608060405234801561001057600080fd5b50600436106100b35760003560e01c8063ca6eec7811610071578063ca6eec78146101b8578063d1be4883146101d4578063dd3e80c414610204578063e97f285214610222578063f731fa0f1461023e578063f851a44014610270576100b3565b8062629679146100b8578063299d0348146100d45780632fad59911461010c5780636147ed561461013c5780637f8d3a3c1461016c5780638b61b7c814610188575b600080fd5b6100d260048036038101906100cd919061130b565b61028e565b005b6100ee60048036038101906100e9919061136e565b6103bd565b6040516101039998979695949392919061147d565b60405180910390f35b61012660048036038101906101219190611552565b610665565b604051610133919061157f565b60405180910390f35b6101566004803603810190610151919061136e565b6106a4565b604051610163919061159a565b60405180910390f35b610186600480360381019061018191906116ea565b6106d1565b005b6101a2600480360381019061019d9190611552565b6108b4565b6040516101af9190611746565b60405180910390f35b6101d260048036038101906101cd919061136e565b6108d8565b005b6101ee60048036038101906101e9919061136e565b610b12565b6040516101fb91906118c1565b60405180910390f35b61020c610e28565b6040516102199190611992565b60405180910390f35b61023c600480360381019061023791906119b4565b610e80565b005b6102586004803603810190610253919061130b565b61114d565b60405161026793929190611a9f565b60405180910390f35b61027861120c565b604051610285919061157f565b60405180910390f35b60008054906101000a900473ffffffffffffffffffffffffffffffffffffffff1673ffffffffffffffffffffffffffffffffffffffff163373ffffffffffffffffffffffffffffffffffffffff161461031c576040517f08c379a000000000000000000000000000000000000000000000000000000000815260040161031390611b4f565b60405180910390fd5b6000600260008373ffffffffffffffffffffffffffffffffffffffff1673ffffffffffffffffffffffffffffffffffffffff16815260200190815260200160002060010160006101000a81548160ff0219169083151502179055508073ffffffffffffffffffffffffffffffffffffffff167f95a4c2ae425bb769549aa1a911911ff57c17ae811ae8c8962d0b9746fcb1539760405160405180910390a250565b60016020528060005260406000206000915090508060000160009054906101000a900473ffffffffffffffffffffffffffffffffffffffff169080600101805461040690611b9e565b80601f016020809104026020016040519081016040528092919081815260200182805461043290611b9e565b801561047f5780601f106104545761010080835404028352916020019161047f565b820191906000526020600020905b81548152906001019060200180831161046257829003601f168201915b50505050509080600201805461049490611b9e565b80601f01602080910402602001604051908101604052809291908181526020018280546104c090611b9e565b801561050d5780601f106104e25761010080835404028352916020019161050d565b820191906000526020600020905b8154815290600101906020018083116104f057829003601f168201915b50505050509080600301805461052290611b9e565b80601f016020809104026020016040519081016040528092919081815260200182805461054e90611b9e565b801561059b5780601f106105705761010080835404028352916020019161059b565b820191906000526020600020905b81548152906001019060200180831161057e57829003601f168201915b5050505050908060040154908060050180546105b690611b9e565b80601f01602080910402602001604051908101604052809291908181526020018280546105e290611b9e565b801561062f5780601f106106045761010080835404028352916020019161062f565b820191906000526020600020905b81548152906001019060200180831161061257829003601f168201915b5050505050908060060154908060070160009054906101000a900460ff16908060070160019054906101000a900460ff16905089565b6004818154811061067557600080fd5b906000526020600020016000915054906101000a900473ffffffffffffffffffffffffffffffffffffffff1681565b60006001600083815260200190815260200160002060070160009054906101000a900460ff169050919050565b60008054906101000a900473ffffffffffffffffffffffffffffffffffffffff1673ffffffffffffffffffffffffffffffffffffffff163373ffffffffffffffffffffffffffffffffffffffff161461075f576040517f08c379a000000000000000000000000000000000000000000000000000000000815260040161075690611b4f565b60405180910390fd5b604051806060016040528082815260200160011515815260200142815250600260008473ffffffffffffffffffffffffffffffffffffffff1673ffffffffffffffffffffffffffffffffffffffff16815260200190815260200160002060008201518160000190816107d19190611d7b565b5060208201518160010160006101000a81548160ff021916908315150217905550604082015181600201559050506004829080600181540180825580915050600190039060005260206000200160009091909190916101000a81548173ffffffffffffffffffffffffffffffffffffffff021916908373ffffffffffffffffffffffffffffffffffffffff1602179055508173ffffffffffffffffffffffffffffffffffffffff167f4a1726c837046486d7e0af20814f9e585c72cfaa1c46e87414677bc7baab9be2826040516108a89190611e4d565b60405180910390a25050565b600381815481106108c457600080fd5b906000526020600020016000915090505481565b600260003373ffffffffffffffffffffffffffffffffffffffff1673ffffffffffffffffffffffffffffffffffffffff16815260200190815260200160002060010160009054906101000a900460ff16610967576040517f08c379a000000000000000000000000000000000000000000000000000000000815260040161095e90611ee1565b60405180910390fd5b3373ffffffffffffffffffffffffffffffffffffffff166001600083815260200190815260200160002060000160009054906101000a900473ffffffffffffffffffffffffffffffffffffffff1673ffffffffffffffffffffffffffffffffffffffff1614610a0b576040517f08c379a0000000000000000000000000000000000000000000000000000000008152600401610a0290611f4d565b60405180910390fd5b6001600082815260200190815260200160002060070160009054906101000a900460ff16610a6e576040517f08c379a0000000000000000000000000000000000000000000000000000000008152600401610a6590611fb9565b60405180910390fd5b60006001600083815260200190815260200160002060070160006101000a81548160ff021916908315150217905550600180600083815260200190815260200160002060070160016101000a81548160ff0219169083151502179055503373ffffffffffffffffffffffffffffffffffffffff16817fd3196f598a360c115a1de20d5a58021203793f1bf1a08efe55ee14545779606d60405160405180910390a350565b610b1a611230565b60016000838152602001908152602001600020604051806101200160405290816000820160009054906101000a900473ffffffffffffffffffffffffffffffffffffffff1673ffffffffffffffffffffffffffffffffffffffff1673ffffffffffffffffffffffffffffffffffffffff168152602001600182018054610b9f90611b9e565b80601f0160208091040260200160405190810160405280929190818152602001828054610bcb90611b9e565b8015610c185780601f10610bed57610100808354040283529160200191610c18565b820191906000526020600020905b815481529060010190602001808311610bfb57829003601f168201915b50505050508152602001600282018054610c3190611b9e565b80601f0160208091040260200160405190810160405280929190818152602001828054610c5d90611b9e565b8015610caa5780601f10610c7f57610100808354040283529160200191610caa565b820191906000526020600020905b815481529060010190602001808311610c8d57829003601f168201915b50505050508152602001600382018054610cc390611b9e565b80601f0160208091040260200160405190810160405280929190818152602001828054610cef90611b9e565b8015610d3c5780601f10610d1157610100808354040283529160200191610d3c565b820191906000526020600020905b815481529060010190602001808311610d1f57829003601f168201915b5050505050815260200160048201548152602001600582018054610d5f90611b9e565b80601f0160208091040260200160405190810160405280929190818152602001828054610d8b90611b9e565b8015610dd85780601f10610dad57610100808354040283529160200191610dd8565b820191906000526020600020905b815481529060010190602001808311610dbb57829003601f168201915b50505050508152602001600682015481526020016007820160009054906101000a900460ff161515151581526020016007820160019054906101000a900460ff1615151515815250509050919050565b60606003805480602002602001604051908101604052809291908181526020018280548015610e7657602002820191906000526020600020905b815481526020019060010190808311610e62575b5050505050905090565b600260003373ffffffffffffffffffffffffffffffffffffffff1673ffffffffffffffffffffffffffffffffffffffff16815260200190815260200160002060010160009054906101000a900460ff16610f0f576040517f08c379a0000000000000000000000000000000000000000000000000000000008152600401610f0690611ee1565b60405180910390fd5b6000600160008381526020019081526020016000206006015414610f68576040517f08c379a0000000000000000000000000000000000000000000000000000000008152600401610f5f90612025565b60405180910390fd5b6040518061012001604052803373ffffffffffffffffffffffffffffffffffffffff168152602001868152602001858152602001848152602001828152602001838152602001428152602001600115158152602001600015158152506001600083815260200190815260200160002060008201518160000160006101000a81548173ffffffffffffffffffffffffffffffffffffffff021916908373ffffffffffffffffffffffffffffffffffffffff16021790555060208201518160010190816110339190611d7b565b5060408201518160020190816110499190611d7b565b50606082015181600301908161105f9190611d7b565b506080820151816004015560a082015181600501908161107f9190611d7b565b5060c0820151816006015560e08201518160070160006101000a81548160ff0219169083151502179055506101008201518160070160016101000a81548160ff02191690831515021790555090505060038190806001815401808255809150506001900390600052602060002001600090919091909150553373ffffffffffffffffffffffffffffffffffffffff16817fa6ffd16850fcbd5096e91ab4c80888a24a546d4f75ff4081d11beaa783ad9aef8660405161113e9190611e4d565b60405180910390a35050505050565b600260205280600052604060002060009150905080600001805461117090611b9e565b80601f016020809104026020016040519081016040528092919081815260200182805461119c90611b9e565b80156111e95780601f106111be576101008083540402835291602001916111e9565b820191906000526020600020905b8154815290600101906020018083116111cc57829003601f168201915b5050505050908060010160009054906101000a900460ff16908060020154905083565b60008054906101000a900473ffffffffffffffffffffffffffffffffffffffff1681565b604051806101200160405280600073ffffffffffffffffffffffffffffffffffffffff1681526020016060815260200160608152602001606081526020016000801916815260200160608152602001600081526020016000151581526020016000151581525090565b6000604051905090565b600080fd5b600080fd5b600073ffffffffffffffffffffffffffffffffffffffff82169050919050565b60006112d8826112ad565b9050919050565b6112e8816112cd565b81146112f357600080fd5b50565b600081359050611305816112df565b92915050565b600060208284031215611321576113206112a3565b5b600061132f848285016112f6565b91505092915050565b6000819050919050565b61134b81611338565b811461135657600080fd5b50565b60008135905061136881611342565b92915050565b600060208284031215611384576113836112a3565b5b600061139284828501611359565b91505092915050565b6113a4816112cd565b82525050565b600081519050919050565b600082825260208201905092915050565b60005b838110156113e45780820151818401526020810190506113c9565b60008484015250505050565b6000601f19601f8301169050919050565b600061140c826113aa565b61141681856113b5565b93506114268185602086016113c6565b61142f816113f0565b840191505092915050565b61144381611338565b82525050565b6000819050919050565b61145c81611449565b82525050565b60008115159050919050565b61147781611462565b82525050565b600061012082019050611493600083018c61139b565b81810360208301526114a5818b611401565b905081810360408301526114b9818a611401565b905081810360608301526114cd8189611401565b90506114dc608083018861143a565b81810360a08301526114ee8187611401565b90506114fd60c0830186611453565b61150a60e083018561146e565b61151861010083018461146e565b9a9950505050505050505050565b61152f81611449565b811461153a57600080fd5b50565b60008135905061154c81611526565b92915050565b600060208284031215611568576115676112a3565b5b60006115768482850161153d565b91505092915050565b6000602082019050611594600083018461139b565b92915050565b60006020820190506115af600083018461146e565b92915050565b600080fd5b600080fd5b7f4e487b7100000000000000000000000000000000000000000000000000000000600052604160045260246000fd5b6115f7826113f0565b810181811067ffffffffffffffff82111715611616576116156115bf565b5b80604052505050565b6000611629611299565b905061163582826115ee565b919050565b600067ffffffffffffffff821115611655576116546115bf565b5b61165e826113f0565b9050602081019050919050565b82818337600083830152505050565b600061168d6116888461163a565b61161f565b9050828152602081018484840111156116a9576116a86115ba565b5b6116b484828561166b565b509392505050565b600082601f8301126116d1576116d06115b5565b5b81356116e184826020860161167a565b91505092915050565b60008060408385031215611701576117006112a3565b5b600061170f858286016112f6565b925050602083013567ffffffffffffffff8111156117305761172f6112a8565b5b61173c858286016116bc565b9150509250929050565b600060208201905061175b600083018461143a565b92915050565b61176a816112cd565b82525050565b600082825260208201905092915050565b600061178c826113aa565b6117968185611770565b93506117a68185602086016113c6565b6117af816113f0565b840191505092915050565b6117c381611338565b82525050565b6117d281611449565b82525050565b6117e181611462565b82525050565b6000610120830160008301516118006000860182611761565b50602083015184820360208601526118188282611781565b915050604083015184820360408601526118328282611781565b9150506060830151848203606086015261184c8282611781565b915050608083015161186160808601826117ba565b5060a083015184820360a08601526118798282611781565b91505060c083015161188e60c08601826117c9565b5060e08301516118a160e08601826117d8565b506101008301516118b66101008601826117d8565b508091505092915050565b600060208201905081810360008301526118db81846117e7565b905092915050565b600081519050919050565b600082825260208201905092915050565b6000819050602082019050919050565b600061191b83836117ba565b60208301905092915050565b6000602082019050919050565b600061193f826118e3565b61194981856118ee565b9350611954836118ff565b8060005b8381101561198557815161196c888261190f565b975061197783611927565b925050600181019050611958565b5085935050505092915050565b600060208201905081810360008301526119ac8184611934565b905092915050565b600080600080600060a086880312156119d0576119cf6112a3565b5b600086013567ffffffffffffffff8111156119ee576119ed6112a8565b5b6119fa888289016116bc565b955050602086013567ffffffffffffffff811115611a1b57611a1a6112a8565b5b611a27888289016116bc565b945050604086013567ffffffffffffffff811115611a4857611a476112a8565b5b611a54888289016116bc565b935050606086013567ffffffffffffffff811115611a7557611a746112a8565b5b611a81888289016116bc565b9250506080611a9288828901611359565b9150509295509295909350565b60006060820190508181036000830152611ab98186611401565b9050611ac8602083018561146e565b611ad56040830184611453565b949350505050565b7f43616c6c6572206973206e6f74207468652061646d696e2f726567756c61746f60008201527f7200000000000000000000000000000000000000000000000000000000000000602082015250565b6000611b396021836113b5565b9150611b4482611add565b604082019050919050565b60006020820190508181036000830152611b6881611b2c565b9050919050565b7f4e487b7100000000000000000000000000000000000000000000000000000000600052602260045260246000fd5b60006002820490506001821680611bb657607f821691505b602082108103611bc957611bc8611b6f565b5b50919050565b60008190508160005260206000209050919050565b60006020601f8301049050919050565b600082821b905092915050565b600060088302611c317fffffffffffffffffffffffffffffffffffffffffffffffffffffffffffffffff82611bf4565b611c3b8683611bf4565b95508019841693508086168417925050509392505050565b6000819050919050565b6000611c78611c73611c6e84611449565b611c53565b611449565b9050919050565b6000819050919050565b611c9283611c5d565b611ca6611c9e82611c7f565b848454611c01565b825550505050565b600090565b611cbb611cae565b611cc6818484611c89565b505050565b5b81811015611cea57611cdf600082611cb3565b600181019050611ccc565b5050565b601f821115611d2f57611d0081611bcf565b611d0984611be4565b81016020851015611d18578190505b611d2c611d2485611be4565b830182611ccb565b50505b505050565b600082821c905092915050565b6000611d5260001984600802611d34565b1980831691505092915050565b6000611d6b8383611d41565b9150826002028217905092915050565b611d84826113aa565b67ffffffffffffffff811115611d9d57611d9c6115bf565b5b611da78254611b9e565b611db2828285611cee565b600060209050601f831160018114611de55760008415611dd3578287015190505b611ddd8582611d5f565b865550611e45565b601f198416611df386611bcf565b60005b82811015611e1b57848901518255600182019150602085019450602081019050611df6565b86831015611e385784890151611e34601f891682611d41565b8355505b6001600288020188555050505b505050505050565b60006020820190508181036000830152611e678184611401565b905092915050565b7f43616c6c6572206973206e6f7420616e20617574686f72697a6564206973737560008201527f6572000000000000000000000000000000000000000000000000000000000000602082015250565b6000611ecb6022836113b5565b9150611ed682611e6f565b604082019050919050565b60006020820190508181036000830152611efa81611ebe565b9050919050565b7f4f6e6c7920746865206973737565722063616e207265766f6b65000000000000600082015250565b6000611f37601a836113b5565b9150611f4282611f01565b602082019050919050565b60006020820190508181036000830152611f6681611f2a565b9050919050565b7f43726564656e7469616c20616c726561647920696e76616c6964000000000000600082015250565b6000611fa3601a836113b5565b9150611fae82611f6d565b602082019050919050565b60006020820190508181036000830152611fd281611f96565b9050919050565b7f43726564656e7469616c20616c72656164792065786973747300000000000000600082015250565b600061200f6019836113b5565b915061201a82611fd9565b602082019050919050565b6000602082019050818103600083015261203e81612002565b905091905056fea26469706673582212201eea82d044de966639efdcd4706edebc9fcbe47889da3fb3c0c2ac90a0ef084e64736f6c63430008130033",
  "linkReferences": {},
  "deployedLinkReferences": {}
}